{
  "abi": [
    {
      "inputs": [],
      "stateMutability": "nonpayable",
      "type": "constructor"
    },
    {
      "inputs": [],
      "name": "amount",
      "outputs": [
        {
          "internalType": "uint256",
          "name": "",
          "type": "uint256"
        }
      ],
      "stateMutability": "view",
      "type": "function"
    },
    {
      "inputs": [],
      "name": "condition",
      "outputs": [
        {
          "internalType": "bool",
          "name": "",
          "type": "bool"
        }
      ],
      "stateMutability": "view",
      "type": "function"
    },
    {
      "inputs": [],
      "name": "deposit",
      "outputs": [],
      "stateMutability": "payable",
      "type": "function"
    },
    {
      "inputs": [],
      "name": "depositor",
      "outputs": [
        {
          "internalType": "address",
          "name": "",
          "type": "address"
        }
      ],
      "stateMutability": "view",
      "type": "function"
    },
    {
      "inputs": [],
      "name": "pay",
      "outputs": [],
      "stateMutability": "nonpayable",
      "type": "function"
    },
    {
      "inputs": [],
      "name": "payee",
      "outputs": [
        {
          "internalType": "address",
          "name": "",
          "type": "address"
        }
      ],
      "stateMutability": "view",
      "type": "function"
    },
    {
      "inputs": [
        {
          "internalType": "address",
          "name": "_payee",
          "type": "address"
        }
      ],
      "name": "setPayee",
      "outputs": [],
      "stateMutability": "nonpayable",
      "type": "function"
    },
    {
      "inputs": [
        {
          "internalType": "address",
          "name": "verificationContract",
          "type": "address"
        },
        {
          "internalType": "uint256[37]",
          "name": "instances",
          "type": "uint256[37]"
        },
        {
          "internalType": "bytes",
          "name": "proof",
          "type": "bytes"
        }
      ],
      "name": "verificationResult",
      "outputs": [],
      "stateMutability": "nonpayable",
      "type": "function"
    },
    {
      "inputs": [],
      "name": "withdraw",
      "outputs": [],
      "stateMutability": "nonpayable",
      "type": "function"
    }
  ],
  "bytecode": {
    "object": "0x608060405234801561001057600080fd5b50600080546001600160a01b031916331790556107b4806100326000396000f3fe6080604052600436106100865760003560e01c8063aa8c217c11610059578063aa8c217c146100f7578063ae90b21314610120578063c503133114610158578063c7c4ff4614610182578063d0e30db0146101a257600080fd5b80631b9265b81461008b5780633ccfd60b146100a2578063410459ad146100b7578063826bb857146100d7575b600080fd5b34801561009757600080fd5b506100a06101aa565b005b3480156100ae57600080fd5b506100a06102fa565b3480156100c357600080fd5b506100a06100d2366004610641565b6103d7565b3480156100e357600080fd5b506100a06100f2366004610663565b610461565b34801561010357600080fd5b5061010d60025481565b6040519081526020015b60405180910390f35b34801561012c57600080fd5b50600154610140906001600160a01b031681565b6040516001600160a01b039091168152602001610117565b34801561016457600080fd5b506003546101729060ff1681565b6040519015158152602001610117565b34801561018e57600080fd5b50600054610140906001600160a01b031681565b6100a0610551565b6000546001600160a01b031633146102175760405162461bcd60e51b815260206004820152602560248201527f596f7520617265206e6f7420616c6c6f77656420746f206d616b65207061796d60448201526432b73a399760d91b60648201526084015b60405180910390fd5b60035460ff166102695760405162461bcd60e51b815260206004820152601b60248201527f436f6e646974696f6e206973206e6f742066756c66696c6c65642e0000000000604482015260640161020e565b6000600254116102b15760405162461bcd60e51b8152602060048201526013602482015272273790333ab732399030bb30b4b630b136329760691b604482015260640161020e565b6002805460009182905560015460405191926001600160a01b039091169183156108fc0291849190818181858888f193505050501580156102f6573d6000803e3d6000fd5b5050565b6000546001600160a01b031633146103545760405162461bcd60e51b815260206004820152601a60248201527f596f7520617265206e6f7420746865206465706f7369746f722e000000000000604482015260640161020e565b60035460ff161561039f5760405162461bcd60e51b81526020600482015260156024820152742a3432bc903830b9b9b2b2103a3432903a32b9ba1760591b604482015260640161020e565b600280546000918290556040519091339183156108fc0291849190818181858888f193505050501580156102f6573d6000803e3d6000fd5b6000546001600160a01b0316331461043f5760405162461bcd60e51b815260206004820152602560248201527f596f7520617265206e6f7420616c6c6f77656420746f2073657420746865207060448201526430bcb2b29760d91b606482015260840161020e565b600180546001600160a01b0319166001600160a01b0392909216919091179055565b6000546001600160a01b031633146104c65760405162461bcd60e51b815260206004820152602260248201527f4f6e6c79206465706f7369746f722061726520616c6c6f7720746f2076657269604482015261667960f01b606482015260840161020e565b60405163755867ad60e11b815284906001600160a01b0382169063eab0cf5a906104f8908790879087906004016106f8565b602060405180830381865afa158015610515573d6000803e3d6000fd5b505050506040513d601f19601f820116820180604052508101906105399190610735565b6003805460ff19169115159190911790555050505050565b6000546001600160a01b031633146105ab5760405162461bcd60e51b815260206004820152601a60248201527f596f7520617265206e6f7420746865206465706f7369746f722e000000000000604482015260640161020e565b6000341161060c5760405162461bcd60e51b815260206004820152602860248201527f4465706f73697420616d6f756e742073686f756c642062652067726561746572604482015267103a3430b710181760c11b606482015260840161020e565b346002600082825461061e9190610757565b9091555050565b80356001600160a01b038116811461063c57600080fd5b919050565b60006020828403121561065357600080fd5b61065c82610625565b9392505050565b6000806000806104e0858703121561067a57600080fd5b61068385610625565b93506104c085018681111561069757600080fd5b6020860193503567ffffffffffffffff808211156106b457600080fd5b818701915087601f8301126106c857600080fd5b8135818111156106d757600080fd5b8860208285010111156106e957600080fd5b95989497505060200194505050565b60006104c06104a080878537830181905282018390526104e08385828501376000838501820152601f909301601f19169091019091019392505050565b60006020828403121561074757600080fd5b8151801515811461065c57600080fd5b8082018082111561077857634e487b7160e01b600052601160045260246000fd5b9291505056fea26469706673582212207c170ff839307ad7ad7dbb3a41c586587b0b576b0579305a6709d4715edc110464736f6c63430008150033",
    "linkReferences": {}
  },
  "methodIdentifiers": {
    "amount()": "aa8c217c",
    "condition()": "c5031331",
    "deposit()": "d0e30db0",
    "depositor()": "c7c4ff46",
    "pay()": "1b9265b8",
    "payee()": "ae90b213",
    "setPayee(address)": "410459ad",
    "verificationResult(address,uint256[37],bytes)": "826bb857",
    "withdraw()": "3ccfd60b"
  },
  "id": 0
}